:020000040800F2
:1000000008070020650100082F0F00082D0F0008C9
:1000100000000000000000000000000000000000E0
:10002000000000000000000000000000330F000886
:100030000000000000000000310F0008350F00082C
:100040007701000800000000770100087701000830
:1000500077010008770100087701000823050008F0
:100060000000000077010008770100087701000810
:100070007701000877010008770100080000000000
:100080007701000877010008770100087701000870
:100090007701000877010008770100087701000860
:1000A0007701000877010008770100087701000850
:1000B00077010008770100080000000077010008C0
:1000C00000F002F800F03EF80CA030C80838241800
:1000D0002D18671EA246AB4654465D46AC4201D180
:1000E00000F030F87E460F3EB6460FCC0126334274
:1000F00000D0FB1A3343A246AB461847E81600006F
:1001000008170000103A02D378C878C1FAD852070D
:1001100001D330C830C101D504680C6070470000BD
:100120000023002400250026103A01D378C1FBD813
:10013000520700D330C100D50B6070471FB51FBDFB
:1001400010B510BD00F0BAF91146FFF7F7FF01F046
:100150009FF800F0D2F903B4FFF7F2FF03BC00F000
:10016000D9F900000748804707480047FEE7FEE747
:10017000FEE7FEE7FEE7FEE704480549054A064BB1
:10018000704700003D0F0008C10000080801002072
:10019000080700200803002008030020704770476C
:1001A000704700000246C80FC00781434B0030B5BE
:1001B0004B405B009B0D20D01923DB06C91801239F
:1001C0001B05994220DB0324A40704251346AB40FA
:1001D0000BD3002B04D1EB0613409B00E34204D465
:1001E00001246407002312195941FF231B0599427A
:1001F0000BD2C9000143500F09E0CB0204D50143E3
:100200000803024305D0054830BDFF21C905084356
:1002100030BD084607210905884330BD0000C07F76
:10022000F0B58B4C0F09254689B0BD437BD01D0925
:100230002646AE43FAD00E465E402740F60F3E43B8
:10024000254071D024012142FBD0FF24AD19A40424
:100250002D1B039501252D05DB02DB0AC9022B436B
:10026000C90A29431E010901040F130F0501214387
:100270001701880B820391432D098C46A90B1E435D
:100280008A039543B30B9A0396433F09BA0B940331
:10029000A74302962E467E430497B6464E19D719B9
:1002A0000C460196544305977E43371B7646BF1B89
:1002B0003601B646BE0B361900967646BC04371991
:1002C000009C01D3641C00946400002F01D001261F
:1002D0003443029E049F754366467E43049676002F
:1002E00034196E0034190094029C019E1C19664357
:1002F000751BAE46069465464519059C05956C43ED
:10030000594375460891691A0191049E014651436B
:10031000A41B0491611A009C0791E10605D06109B4
:100320000122114302E072E06EE06109089D00279E
:100330002C0A2D066918049D7C412A0A2D0669188D
:10034000019D6241AC0DAD026D185441079A910DAB
:10035000920255196141029A644658435443069BE0
:10036000059A5A43121A131B9A0E9B015B187A4185
:10037000010B0005C3185141220A200644195A41B5
:100380009A4200D2491C01204002814203D3152326
:100390000226F64302E014230326F6432020C51A62
:1003A000A9401746AF40DA400A4320460399D84097
:1003B0000914731819055118039A3843D20751408C
:1003C000AC4009D00122944006D30022401C514188
:1003D000002C01D1400840001E4A934212D3012252
:1003E00003989206904207DB0520400709181A4837
:1003F0000143C012414004E0032040070818C10F28
:10040000C907002009B0F0BD0020F107FAE7051880
:100410000C464C4111486D42A04115D394181A4620
:100420005A410E48644290410ED301204A004005D3
:10043000824209D35A00824206D35940C90F084A62
:10044000C90700201143DDE700200649DAE7000074
:100450000000FF07FE070000FFFFFF7F0000E0FF36
:100460000000F07F0000F87F0121C9050123411839
:1004700042001B06D3185B0E0AD0C1100722D20619
:10048000891840075242D14201D55200891870475D
:10049000090208D50146002A03D0C10FC907002070
:1004A000704710467047420202D000200249704750
:1004B000072109050143F4E70000F87F754600F0C5
:1004C00025F8AE46050069465346C008C00085467B
:1004D00018B020B5FFF750FE60BCB64600260027D6
:1004E000C0C5C0C5C0C5C0C5C0C5C0C5C0C5C0C5E4
:1004F000403D490849008D46704710B50446C04646
:10050000C0462046FFF727FE10BD00000048704798
:100510001000002001491820ABBEFEE726000200B3
:10052000704780B50120400300F002F880BD70479D
:1005300080B504490A68024202D00860FFF7F7FF5D
:1005400080BDC04614040140F0B58EB007466E4829
:10055000874201D0052000E00320009008680C903D
:10056000002800D1CEE00123002403930B940A94C9
:100570000791099711E00C9A1043644AD06008680B
:100580000C90D840241D5B1C0B9A921C0B920A9A6B
:10059000521C0A92002800D1B4E05A1E0398089217
:1005A00090400C9A02400C92E9D005934B680326C8
:1005B0001A463240551E012D0694029318D8032680
:1005C0000B9FBE40099CA168B143079DED68BD40EB
:1005D0000D43A560D906C90F089DA94065688543EC
:1005E0000D436560069C0799F3430A9845000BE0AC
:1005F00030460B9DA840C343032A05D104930B98B2
:100600003246099F029B22E0099F2E46F868184057
:100610008D680196B5400543FD60022A049314D10C
:100620001C2020400F218140089AD2089200BA185D
:10063000156A8D4307990E6986402E430799166205
:10064000099F4B6803221A4000E0029B01988240F8
:100650003868049D2840104338609803800F059B3C
:100660008DD05D4A10680121084310601068084071
:100670000D900C2222400F2595400320089E8643B2
:100680000D98234C3059A84335190926F606099CC4
:10069000B442099F09D01F4CA74207D01E498F4280
:1006A0000099069C03D1022101E00021069C9140A3
:1006B000014329601548006807994D68EA0302D58F
:1006C0000C9A104301E00C9A9043104A1060506855
:1006D000AA0302D50C9A104301E00C9A90430B4AEE
:1006E00050609068EA0202D50C9A104301E00C9A1F
:1006F0009043064A9060D068AA0200D53BE70C9A66
:1007000090433AE70EB0F0BD000C004800040140F1
:100710000800014000040048000800480069084043
:10072000411E88417047002A02D01822815070472C
:100730002822815070470000054800687047C04675
:100740001A48007802490A68101808607047C046C5
:100750000001002010B58248016810220A4302609F
:100760000024204600F004F800F022F8204610BDD6
:1007700070B504467D20C0000C4E317800F06CFE50
:1007800001467F48006800F067FE00F023FB01256A
:10079000032C08D8002806D10025E84321462A4624
:1007A00000F028F87460284670BDC04600000020A4
:1007B00082B00948016801221143016001681140BB
:1007C00001910199110742680A434260406808405C
:1007D0000090009802B0704718100240002805D41D
:1007E0001F21084001218140014801607047C04637
:1007F00000E100E0002805D40322034693430C4A9D
:100800009A1806E00F220240083A03239A43074B46
:10081000D2188007C00E8901C9B28140FF238340EE
:1008200010689843084310607047C0461CED00E014
:1008300000E400E0F0B581B0002861D00446484AE9
:100840001368012003408B4208D213680126B3438A
:100850000B431360126832408A424ED100912168E6
:100860008A07544B11D54A0707D507221202514B6C
:100870001B6813434F4A13604E4B1A68F0239A4388
:10088000A36813434B4A13604A4BC9073CD1344910
:10089000086801263040009A904205D90868B043A4
:1008A00008600868C00728D12078400706D50720CF
:1008B000000219688143E0680843186019680C2237
:1008C0000A403D48082A0CD18902090F3B4A545C72
:1008D000996A0F220A403A49895C00F0BDFD354B08
:1008E000604319680906090F1F4A515CC840244932
:1008F000086000263046FFF73BFF304601B0F0BDF0
:100900000126304601B0F0BD61681A1F022906D0E9
:10091000012909D1126892030646EED508E0126853
:1009200092010646E9D503E0126892070646E4D52F
:1009300018680326B04308431860FFF7FDFE07461A
:10094000084D1C4B18680C210140606880008142F2
:100950009DD0FFF7F1FEC01BA842F2D9CDE7C046FB
:100960000020024088130000AC170008044800680B
:10097000104909684905490F024A515CC84070474F
:1009800008000020BC17000810B50A490A680C23AB
:1009900013400948082B0BD19202120F074B9C5CA5
:1009A000896A0F220A400649895C00F055FD6043C0
:1009B00010BDC0460410024000127A00C41700089F
:1009C000D4170008F0B587B004460120002C00D1F0
:1009D000F5E104902078C007FB4E059419D07168AA
:1009E0000C20014004290DD071680140082900D075
:1009F000C0E00320C003716801400120000481426F
:100A000000D0B7E03068800303D56068002800D1CB
:100A100018E1207880071FD570680007800F0CD080
:100A200070680C21014008297AD10320C003716845
:100A300001400120C003814272D130688007059CCB
:100A400003D5E068012800D0FCE03068F821884335
:100A50002169C90001433160059C2078000724D436
:100A60002078400736D42078C00600D4C5E0059829
:100A70004069411D00D1B4E0012800D007E1706B4E
:100A8000042101437163706B012101437163FFF71E
:100A900053FE0546706B800700D5A6E0FFF74CFEBD
:100AA000411B03200229F5D989E1706AE169002917
:100AB00074D0012108437062FFF73EFE0546706A5C
:100AC0008007CDD4FFF738FE401B0228F7D903205A
:100AD00007B0F0BD012003900107F06908400290C3
:100AE00006D1F0690843F061F06908400690069865
:100AF0000191B64F3868C00528D4039804023868BD
:100B000020433860FFF718FE0546386820421DD1A3
:100B1000FFF712FE401B6428F7D9032007B0F0BD91
:100B20003068059CE16800294AD001210843306003
:100B3000FFF702FE05463068800786D4FFF7FCFD0C
:100B4000401B0228F7D9032007B0F0BD0598806844
:100B50009F4F002800D1AFE0052800D1C1E0012857
:100B600000D1C2E0306A039988433062306A0421C0
:100B70008843BDE0616801204704002900D1D0E02E
:100B8000052900D1E4E0012900D1E5E00104326843
:100B90008A433260810430688843E0E00121884361
:100BA0007062FFF7C9FD0546706A800700D457E7F9
:100BB000FFF7C2FD401B0228F6D9032007B0F0BDA5
:100BC000012188433060FFF7B7FD05463068800794
:100BD00000D441E7FFF7B0FD411B03200229F5D9FE
:100BE000EDE0706B042188437063706BF8218843DB
:100BF00005998969C900014371630598046A002C4D
:100C00001DD070680C21014008291ED1012C19D07B
:100C10000320C20370680240F16A059C636A9A422D
:100C200010D10F221140E36A9942049B00D0C8E022
:100C300091040840A16A8842184600D0BFE0002015
:100C400007B0F0BD049807B0F0BD0120020631687E
:100C50000492914331604706FFF76EFD0546022C72
:100C60000BD1049C3068384200D188E0FFF764FD66
:100C7000411B03200229F5D9A1E030683842DED0BB
:100C8000FFF75AFD411B03200229F6D997E0706B4C
:100C9000042101437163706B012188437063FFF786
:100CA0004BFD0546706B8007A7D5FFF745FD411B3F
:100CB00003200229F6D982E0306A03998843306222
:100CC000306A042188433062FFF736FD0546306AFA
:100CD00080071CD5FFF730FD411B0320B942F6D930
:100CE0006DE0306A042101433162306A03990843A0
:100CF0003062FFF721FD0546306A800707D4FFF711
:100D00001BFD401BB842F7D9032007B0F0BD029885
:100D10000028059C00D0A6E6F06901998843F0619F
:100D2000A1E6010432688A4332608004316881435D
:100D30003160FFF701FD0546059C3068384200D15F
:100D400067E6FFF7F9FC411B03206429F5D936E07B
:100D5000810432680A43326001043068084330601D
:100D6000FFF7EAFC05463068384200D051E6FFF74D
:100D7000E3FC401B6428F6D9032007B0F0BDF06AFD
:100D80000F218843059AD16A0143F1627B20C00399
:100D900071688143906A0843516A01437160306809
:100DA00020433060FFF7C8FC04463068384200D06A
:100DB00045E7FFF7C1FC011B03200229F5D907B065
:100DC000F0BD184607B0F0BD0010024000700040B2
:100DD00088130000401E010E01D001207047074912
:100DE000074A5060074803680B40032189075918D8
:100DF000016000209060072111607047FFFFFF0035
:100E000010E000E020ED00E0F0B583B0002840D015
:100E1000044607467437806F002804D100203870DC
:100E2000204600F057F82420A067206801680125BB
:100E3000A9430160204600F0EBF8012826D0606A43
:100E4000002802D0204600F07AF80126F00221683E
:100E50004A6882434A60886808229043886008682C
:100E6000304308600025FD60FFF766FC03462068FC
:100E70000168090713D51648009071050022204625
:100E8000029300F069F9002807D00325284603B033
:100E9000F0BD0125284603B0F0BD2068029B006824
:100EA00040070CD50A480090B1050022204600F00A
:100EB00053F9002803D00325284603B0F0BD2020B5
:100EC000A067E0673D702566284603B0F0BDC046C8
:100ED000FFFFFF0180B586B000689649884201D0C7
:100EE00006B080BD1048816801220592520411436A
:100EF000816081681140009100990168114301608F
:100F0000006810400090032004900020039002200D
:100F100002900C2001900920C006009901A9FFF75A
:100F200013FB06B080BDC04614100240FEE7FEE78A
:100F30007047704780B5FFF703FC80BD7047B0B5C0
:100F4000416ACA070CD18A0714D44A071CD40A077D
:100F500024D4CA062CD48A0634D44A063CD44CE0A5
:100F60000122520403685C689443826A22435A60F7
:100F70008A07EAD50122120403685C689443C26AB6
:100F800022435A604A07E2D50122920403685C6852
:100F90009443026B22435A600A07DAD50122D20336
:100FA00003685C689443426B22435A60CA06D2D5F8
:100FB0000122120303689C689443826B22439A6067
:100FC0008A06CAD50122520303689C689443C26B07
:100FD00022439A604A0610D501221305026854681C
:100FE0009C43056C2C4354609D4206D103235B0552
:100FF00054689C43436C23435360090607D5012181
:10100000C904026853688B43806C18435060B0BDBC
:10101000B0B5044600680168424A0A40A1682369E5
:101020000B4365691D43E1690D43154305600322C8
:10103000120343689343E2681A434260A269236A39
:1010400013430B221202856895431D4385600022DD
:10105000354B984206DC374B984211D0364B9842BC
:101060000ED00CE0314B98420AD0314A904206D162
:10107000324800688007000F31A2125800E01022A9
:101080000125EB033248994210D1082A44D8C046C2
:101090007A44127952009744043F203F193F3F3F62
:1010A0001F00FFF763FC002817D113E0082A33D88C
:1010B0007A44127952009744042F242F1D2F2F2F8A
:1010C0002300FFF753FC00281BD117E0FFF75CFC5F
:1010D000002802D100251FE01846400061684A0838
:1010E000101800F0B9F91B49014015D00007400F56
:1010F00008430EE0FFF748FC002802D100250BE072
:10110000184661684A08101800F0A6F980B2102845
:1011100002D32168C860002500206066A0662846CA
:10112000B0BDC046F369FFEFFF4B0040004C0040EC
:1011300000380140004400400048004030100240A8
:101140000000000004000000080000000200000091
:1011500000127A00F0FF0000F0B587B016460F4687
:1011600005460468E1693940C91B4A424A410020EA
:10117000B24224D1069304952A4674320C9D002D68
:101180001FD0691C43D1E1693940C91B4A424A4119
:10119000B24214D1E1693940C91B4A424A41B242C4
:1011A0000DD1E1693940C91B4A424A41B24206D1D8
:1011B000E1693940C91B4A424A41B242E3D007B013
:1011C000F0BD0392FFF7B8FA049CEFF31081012001
:1011D00080F310880D22520123681D6895431D601D
:1011E00081F31088EFF3108180F3108822689368F0
:1011F0008343936081F310882020A0677C34039997
:101200000020087020202060032007B0F0BD03926A
:10121000029001200190C0020590049C06E0C06984
:101220003840C01B41424141B1422DD1FFF784FA01
:101230000699401AA842C8D8206801684907EED527
:10124000C169059A1142EAD005990162EFF3108055
:10125000019D85F310880D214901226813688B4395
:10126000136080F31088EFF3108085F310882168F5
:101270008A68AA438A6080F310882020A067E0670C
:1012800003990C460C34BBE7029807B0F0BD000090
:1012900094B0FFF75FFA00250C950B950F950E950E
:1012A0000D950A9509951395022410940894102021
:1012B0000C9001200B9001051291C003119008A819
:1012C000FFF780FB002803D0EFF3108072B6FEE733
:1012D0000795069505940720049004A80126314639
:1012E000FFF7A8FA002803D0EFF3108072B6FEE7EC
:1012F0000C950B95F1044E4802680A43026002689F
:101300000A4004920499B10502680A430260026827
:101310000A4004920499710402680A43026000685A
:10132000084004900498092037460296C6062021FA
:10133000039130462A46FFF7F6F90A95212000046A
:101340000990780308903B4F08A901913846FFF7B0
:10135000FBF80A95099508943846019C2146FFF749
:10136000F3F80B950A950298099003980890304677
:101370002146FFF7E9F80724204629462A46FFF7C9
:1013800039FA2046FFF72AFA2B480C214B22520249
:101390002A4B036042608560C560056141618561DB
:1013A000C56105624562FFF72FFD002803D0EFF30A
:1013B000108072B6FEE70395214D224C1FE0206895
:1013C0007F21C90500F044F9206020210122304628
:1013D000FFF7A9F9039828602068FFF745F81A4A33
:1013E0001A4BFEF71DFFFEF7DDFE6060FFF73CF8CD
:1013F000174A184BFEF714FFFEF7D4FEA060022137
:101400003846FFF78BF9002802D028680028D6D18B
:1014100002213846FFF782F9002805D0202100225A
:101420003046FFF780F9EAE702982860E7E7C04610
:1014300014100240000800487C00002000440040D6
:101440000C00002070000020C1CAA145B6F3144072
:101450009031772D211FA43F43088B421AD30022DD
:1014600003098B4279D3030A8B425ED3030B8B4271
:1014700042D3030C8B4227D30902FF2212BA030C7A
:101480008B4202D31212090203D0030B8B4233D3D7
:101490001AE0D3E0411A8041401C704703460B43D9
:1014A00071D443088B42F5D3002203098B4254D3F5
:1014B000030A8B4239D3030B8B421DD3030C8B429F
:1014C00002D394466EE0090AC30B8B4201D3CB03CF
:1014D000C01A5241830B8B4201D38B03C01A524175
:1014E000430B8B4201D34B03C01A5241030B8B4277
:1014F00001D30B03C01A5241C30A8B4201D3CB0262
:10150000C01A5241830A8B4201D38B02C01A524146
:10151000430A8B4201D34B02C01A5241030A8B4249
:1015200001D30B02C01A5241CDD2C3098B4201D361
:10153000CB01C01A524183098B4201D38B01C01ADF
:10154000524143098B4201D34B01C01A5241030956
:101550008B4201D30B01C01A5241C3088B4201D305
:10156000CB00C01A524183088B4201D38B00C01AB2
:10157000524143088B4201D34B00C01A5241411AD9
:10158000524110007047CA0F00D04942031000D3E7
:101590004042534000229C4603098B422DD3030A4C
:1015A0008B4212D38901FC2212BA030A8B420CD35C
:1015B000890192118B4208D3890192118B4204D385
:1015C000890137D0921100E08909C3098B4201D308
:1015D000CB01C01A524183098B4201D38B01C01A3F
:1015E000524143098B4201D34B01C01A52410309B6
:1015F0008B4201D30B01C01A5241C3088B4201D365
:10160000CB00C01A524183088B4201D38B00C01A11
:101610005241D9D243088B4201D34B00C01A5241E8
:10162000411A00D201465241104663465B1000D376
:101630004042704763465B1000D3404201B5002131
:10164000004201D0C9430846C046C04602BD000062
:1016500070B50125ED0704004C4020D4441A01D296
:10166000001B0919C60D4B00F2B2FF2A29D01B0E30
:101670002CD000020C0228432C43D31ADC4005195D
:1016800010D2280A02D3401C6D0611D0761EF60532
:101690008019FF2A00DA70BDC00DC00570BD694019
:1016A00000F022F801200543C541521C761CE8E7F2
:1016B00064089C40C90161408900E7D10124A0432E
:1016C000E4E71B0E440200D0034870BD002AFCD1A1
:1016D000C00FC00770BD00BF0000C07F70B50125FE
:1016E000ED0704004C4022D4441A02D26C40001B87
:1016F0000919C60D4B00F2B2FF2A4BD01B0E50D079
:1017000000020C02A8432C43D31ADC40051B05D56C
:10171000AD0019D36D08761E521E37D0F605280A83
:1017200001D2801970BD70416D0603D070BD694053
:10173000FFF794FF9C4009026140490001D0401E20
:1017400070BD0124A04370BD6D081DD001202B0C7D
:1017500001D12D0410302B0E01D12D0208302B0F9A
:1017600001D12D01001DAB0F01D1AD00801CEB0F8D
:1017700001D16D00401C361A121A6D00680AF50579
:101780004019012A02DB70BD002070BDC036300A4E
:10179000C00770BD1B0E440201D1FF2B00D10248CF
:1017A00070BD002AF0D070BD0000C07F00000000B6
:1017B0000000000001020304060708090000000001
:1017C0000102030402030405060708090A0B0C0DB5
:1017D0000E0F10100102030405060708090A0B0C7E
:1017E0000D0E0F1008180008000000201000000067
:1017F000040100081818000810000020F806000076
:1018000020010008000000000100000004000000AA
:0818100000127A000100000043
:04000005080000C12E
:00000001FF
